:030000000208B73C
:0C08B700787FE4F6D8FD7581280208FE69
:1004E900556E646566696E652055490052756E00E2
:1004F900506F776572203A204F6E2000506F7765F4
:1005090072203A204F6666004D6F6465203A204894
:100519006F7420004D6F6465203A20436F6C64004E
:1005290054656D7074757265203A2058580053707F
:10053900656564203A2058004C69676874203A2040
:100549004F6E20005377696E67203A20562D535716
:10055900494E4700536C656570203A204F66660026
:10056900417578486F74203A204F66660049525F9A
:1005790053656E64004C6561646572436F646528F8
:10058900290049525F53656E645F526570656174F5
:10059900005F4C65616465725F436F64652829007B
:1005A90049525F53656E645F00496E746572766186
:1005B9006C5F32306D7300496E74657276616C5F81
:1005C90034306D7300495220494F2053746174755A
:1005D90065004952203D20003100300031303000A3
:100C6D00C180C101011800010D000116C00117005E
:100C7D0005111000000A40040900040000010F00D6
:090C8D00010800010E0001100035
:040AC2008E198F1AE0
:100AC600E4F51EF51DF51CF51BAE19AF1A7C007D6D
:100AD6000A1202A3EE3395E0FDFCAB1EAA1DA91C6B
:100AE600A81BC31202C3501BE4FAF9F8E51E240141
:100AF600F51EEA351DF51DE9351CF51CE8351BF517
:030B06001B80C68B
:010B090022C9
:1002D900E4F521F52212077C1200001209431200ED
:1002E90000120000120CE7A2A1E43325E0FFA29757
:1002F900E4334FFFA287E43325E025E04FFFA286D0
:10030900E43333333354F84FFFA285E433FEC45446
:10031900F04FF5216522700281B5852122E4F51897
:10032900E52154026402701AD3E50D940074809497
:1003390080400F150D7500017B57E4FDFCFFFE128F
:100349000000E521540464047016E51654016401A3
:10035900700E050D7500017B53FDFCFFFE120000B8
:10036900E5215401640160028100AF0DFEEF7012B6
:10037900E5165401F5186318FF5316FEE5185401E4
:100389004216EF64014E7012E5165402F51863180F
:10039900FF5316FDE51854024216E50D6402702A52
:1003A900E516547C1313543FFFC394107480948052
:1003B90040188F181518E518640F700375181F5326
:1003C9001683E51825E025E04216AF0D7E00EF649F
:1003D90003700FE5175403F51815185317FCE518A2
:1003E9004217EF64084E700215107500017B41E455
:1003F900FDFCFFFE120000E521541064106002812B
:1004090097AF0DFEEF7012E5165401F5186318FF4A
:100419005316FEE51854014216EF64014E7012E5B9
:10042900165402F5186318FF5316FDE518540242D5
:1004390016E50D6402702AE516547C1313543FFF28
:10044900D3941F7480948050188F180518E5186488
:10045900207003751810531683E51825E025E0422E
:1004690016AF0D7E00EF6403700FE5175403F518FE
:1004790005185317FCE5184217EF64084E7002057A
:10048900107500017B44E4FDFCFFFE120000E5212C
:100499005408640870131208007500017B4FE4FDCD
:1004A900FCFFFE120000120C0A4317401209BB128E
:1004B9000943D3E50F940A74809480400DE4F50F45
:1004C9000508050E120000120000D3E50E940A7407
:1004D900809480500241F0B201B284E4F50E41F0FB
:10077C00E4F58643968075C09075C17375C2079079
:10078C0080037404F0758CFF758AEE5389F04389ED
:10079C00015388CF438810E4F58DF58B53890F43B3
:1007AC00891053883F43884075AF6375AEC075B5EB
:1007BC006375B4C075B21475B38075A88A43E8012B
:1007CC0075B80A9080097402F090800F14F0908034
:1007DC0011F0908007F0908006F0908005F09080EA
:0A07EC000404F0C28CC28ED29122E8
:10094300E50DB40900504590095025E0732162215B
:1009530067216C21712176217B21802185218A12D7
:100963000C97803B120CBF8036120B0A8031120C9D
:100973003D802C120D0D8027120D208022120D3385
:10098300801D120D4680181206B880137BFF7A046F
:1009930079E97500017D087C00E4FFFE1200001276
:1009A30005E93001127BFF7A0479F5750001E4FD56
:0809B300FC7F0CFE1200002283
:100C9700E516540164017BFF700C7A0479F975003D
:100CA700017D08FC800C7A0579057500017D087CBB
:080CB70000E4FFFE1200002220
:100CBF00E516540264027BFF700C7A0579117500FA
:100CCF00017D08FC800C7A05791D7500017D087C7B
:080CDF0000E4FFFE12000022F8
:100B0A007BFF7A0579297500017D087C00E4FFFEE8
:100B1A00120000E516547C1313543FFFE48F00F5CE
:100B2A0000F500F5007500027500017D08FC7F42A2
:040B3A00FE020000B7
:100C3D007BFF7A0579377500017D087C00E4FFFEA6
:100C4D00120000E5175403FFE48F00F500F500F5E1
:100C5D00007500017500017D08FC7F30FE0200006B
:100D0D007BFF7A0579417500017D087C00E4FFFECB
:030D1D00020000D1
:100D20007BFF7A05794D7500017D087C00E4FFFEAC
:030D3000020000BE
:100D33007BFF7A05795D7500017D087C00E4FFFE89
:030D4300020000AB
:100D46007BFF7A0579697500017D087C00E4FFFE6A
:030D560002000098
:1006B800E51014602814603E146054146074240417
:1006C8006002E17B7BFF7A057976750001E4FDFC29
:1006D800FFFE1200007BFF7A05797E80497BFF7A56
:1006E80005798B750001E4FDFCFFFE1200007BFF1D
:1006F8007A05799A80307BFF7A0579A9750001E43B
:10070800FDFCFFFE1200007BFF7A0579B280177BA3
:10071800FF7A0579A9750001E4FDFCFFFE120000CF
:100728007BFF7A0579C07500017D087C00E4FFFE37
:10073800803E7BFF7A0579CE750001E4FDFCFFFE63
:100748001200007BFF7A0579DB7500017D087C00CB
:10075800E4FFFE1200007BFF3091067A0579E18004
:10076800047A0579E37500017D087C007F1E7E0010
:040778001200002249
:10080000E4F523C28CC28ED291120B3EE4F523C3D1
:10081000E523942374809480503AE52313131354F2
:100820001F2411F8E6FD7C00E5235407FF7E0074C9
:1008300080A807088006CEA2E713CE13D8F8FFEEF3
:100840005CFEEF5D4E6004D2028002C202120A79A1
:10085000052380BB120BA4E4F523C3E52394207485
:10086000809480503AE523131313541F2409F8E6AB
:10087000FD7C00E5235407FF7E007480A8070880F4
:1008800006CEA2E713CE13D8F8FFEE5CFEEF5D4E66
:100890006004D2028002C202120A79052380BB12D0
:1008A0000BD77500017B21E4FDFC7F3CFE120000AC
:0608B000C28CC28ED29141
:0108B600221F
:1005E900E4F523F524F528F527F526F525E5C05486
:1005F900806480602175C090AFC4EF4224E524C4B3
:10060900F8540FC868F524E523C454F048F523E5E8
:10061900C3C4540F4224C3E5249428E523940A5003
:10062900107500017B30E4FDFC7F54FE1200008050
:1006390070E52424D8FDE52334F5FCE41201E97BB7
:10064900007AC0794C7844120147E4FBFA79C878FA
:100659004212003E8F288E278D268C25E52424D82A
:10066900FFE52334F5FEC3EF9434EE94035020AF35
:1006790028AE27120222E48F00F500F500F5007577
:100689000002750001FDFC7F4EFE12000080127B06
:10069900FF7A0579E5750001E4FDFC7F48FE12004B
:0F06A900007500017B25E4FDFC7F5AFE02000076
:1009BB005311EFE5165401640170054311108003C8
:1009CB0043112053111FE5165402640270054311A5
:1009DB0020800343118053120FE516547C131354DC
:1009EB003F24F0FF7D0412001EEF540FC454F0425D
:1009FB00125311F3E5175403FF25E025E042115381
:100A0B0013FB4313045311FD4311025311FE5313F4
:0D0A1B00FE53090F5309F0530A0F020A2879
:100A7900758CFF758AF0758DFD758B15D28CD28EAC
:100A8900C291D2002000FDC28CD291300213758D23
:100A9900F7758B40C28CD28ED291D2003000138070
:100AA900FB758DFD758B15C28CD28ED291D200202B
:090AB90000FDC28EC28CD2912214
:100B3E00758CFF758AF0758DD1758B20D28CD28E07
:100B4E00C291D2002000FDC28CD291758DE8758BBA
:100B5E0090C28CD28ED291D2002000FDC28EC28C59
:030B6E00D29122FF
:100B7100758CFF758AF0758DD1758B20D28CD28ED4
:100B8100C291D2002000FDC28CD291758DE8758B87
:100B910090C28CD28ED291D2002000FDC28EC28C26
:030BA100D29122CC
:100BA400758CFF758AF0758DFD758B15D28CD28E80
:100BB400C291D2002000FDC28CD291758D97758BA5
:100BC400D5C28CD28ED291D2002000FDC28CC28EAE
:030BD400D2912299
:100BD700758CFF758AF0758DFD758B15D28CD28E4D
:100BE700C291D2002000FDC28CD291758D2F758BDA
:100BF700ABC28CD28ED291D2002000FDC28CC28EA5
:030C0700D2912265
:10001E00E4FEFCECC39D5010EE25E0FEEF540142D1
:0A002E0006EFC313FF0C80EBAF06D2
:0100380022A5
:100A2800E4FFE51630E1050F0F0F8000E516547C52
:100A38001313543F24F02FFF2405540FFEE4FDFC4C
:100A4800ECC39404748094805020A804EE088002BB
:100A5800C313D8FC5401FFC374039CFBF8EF088050
:100A680002C333D8FC42050C80D6530CF0ED420C7F
:010A7800225B
:100C0A00752305908304749AF09083017442F090DE
:100C1A008307E4F0908306F0908303E516F090834F
:100C2A0007E4F090830604F0908303E517F0A374B9
:020C3A00A9F01F
:010C3C002295
:100CE7009083017441F0908307E4F0908306F090BD
:100CF7008303E0F516908307E4F090830604F090F1
:060D07008303E0F5172252
:03000B0002000EE2
:0B000E00C28D758CFF758AF0B2913234
:03001B00020003DD
:07000300C28FC28EC2003261
:03003B000207F6C3
:0607F60053B27F050F3233
:10003E00EC4D6011E8497017ED33EC3304600DE4BC
:10004E00FCFFFEFD22E933E8330470F802028E1243
:10005E00025958046009E4CC248150062850090244
:10006E000298284003020295C0E0EB4A7044B98022
:10007E0006D0E0FB020284EF4E701CBD8008EBFF41
:10008E00EAFEE9FD80EBE98DF0A4FEE5F002012722
:10009E00E9CDF9EAFEEBFFEF89F0A4FCE5F0CE899D
:1000AE00F0A42EFFE435F0CD89F0A42DFEE435F05A
:1000BE008067EF4E7005BD80D780C3EF8BF0A4AC88
:1000CE00F0EE8BF0A42CFCE435F0F8EF8AF0A42CC3
:1000DE00E5F038FCE433CB8DF0A42CFCE5F03BF8D6
:1000EE00EE8AF0A42CFCE5F038F8E433CF89F0A4C6
:1000FE002CFCE5F038CF3400CE89F0A42FFFE5F0CC
:10010E003EFEE433C98DF0A42EFEE5F039CD8AF023
:10011E00A42FFFE5F03EFEE43DFD33D0E0FB50079B
:10012E000BBB000F020298EC2CFCEF33FFEE33FEFC
:06013E00ED33FD0202702A
:10014400020298EC5D046005E85904700302028E13
:10015400120259580460F6EC4860F2EC7004FDFE9B
:10016400FF22C860DB2481C85009C398600250068E
:100174000202959850CAF582E9294B4A7005AB8270
:1001840002028475F0007C1A7880C3EF9BEE9AED2E
:1001940099400DC3EF9BFFEE9AFEED99FDE842F006
:1001A400DC23ACF0D0E0FFD0E0FED0E0FDAB822059
:1001B400E7101BEB60BAEC2CFCEF33FFEE33FEEDE3
:1001C40033FD020270E803F830E705C0F075F00073
:1001D400EF2FFFEE33FEED33FD40B830E7C280AAC7
:1001E40075F020800E75F010800575F0087D007E96
:1001F400007F003392D530D5031202B5EC334010A2
:10020400EF33FFEE33FEED33FDEC33FCD5F0ED229E
:0E021400E5F0247EA2D513CC92E7CDCEFF22DA
:10022200EDD2E7CD33EC3392D524814006E4FFFED4
:10023200FDFC22FCE4CFCECDCC24E0501174FF8033
:10024200EDC3CC13CCCD13CDCE13CECF13CF0470D0
:07025200F030D5DE0202B519
:10025900E9D2E7C933E833F892D5EDD2E7CD33ECEB
:0702690033FC5002B2D52264
:10027000EC30E7100FBF000C0EBE00080DBD0004EF
:100280000BEB6014A2D5EB13FCED92E7FD2274FF9B
:10029000FCFDFEFF22E480F8A2D574FF13FC7D80F4
:0302A000E480EF08
:1008C3000202D9E493A3F8E493A34003F68001F270
:1008D30008DFF48029E493A3F85407240CC8C33336
:1008E300C4540F4420C8834004F456800146F6DF05
:1008F300E4800B0102040810204080900C6DE47E1C
:10090300019360BCA3FF543F30E509541FFEE493F9
:10091300A360010ECF54C025E060A840B8E493A3C0
:10092300FAE493A3F8E493A3C8C582C8CAC583CAEB
:10093300F0A3C8C582C8CAC583CADFE9DEE780BEA3
:010C9600005D
:1002A300EF8DF0A4A8F0CF8CF0A428CE8DF0A42E6F
:0202B300FE2229
:0E02B500C3E49FFFE49EFEE49DFDE49CFC225A
:1002C300EB9FF5F0EA9E42F0E99D42F0EC6480C8B2
:0602D30064809845F02252
:00000001FF
