:0300000002029564
:0C029500787FE4F6D8FD75811F02027826
:1001A5008E108F11E4F515F514F513F512AE10AF99
:1001B500117C007D0A120030EE3395E0FDFCAB1595
:1001C500AA14A913A812C3120042501BE4FAF9F8A5
:1001D500E5152401F515EA3514F514E93513F5137C
:0801E500E83512F51280C62274
:10027800E4F5864396809080097402F0D29180FE5E
:0A00FF00D2937F017E007D007C009B
:100109008F0B8E0A8D098C08780874FF12006BEC2E
:100119004D4E4F6034E4F50FF50EF50DF50CE47F07
:100129000AFEFDFCAB0FAA0EA90DA80CC3120058BC
:1001390050D6E50F2401F50FE4350EF50EE4350D23
:0A014900F50DE4350CF50C80D5220D
:10022600E4FFFEE4FDFC0DBD00010CBC03F8BDE8D7
:10023600F50FBF00010EBE03EABFE8E790800B741E
:0902460002F0A3F0D293D294223D
:0D028800D2941200FFC294120101C2932211
:10026600C2941200FFD2947F017E007D007C0002C2
:0202760001097C
:100153008F1BE4F51CC3E51C940874809480503213
:100163007E007480A81C088006CEA2E713CE13D8A5
:10017300F8FFEF551B70047F0180027F00EF24FF1F
:10018300B392941201011200FFC293120101051CE4
:1001930080C31200FFC2937F017E007D007C0002BA
:0201A300010950
:10024F008F1F1202887F7A120153E4FF120153AFFE
:07025F001F120153020266A9
:1001ED008B168A1789188D191202887F7A1201537E
:1001FD007F40120153E4F51AE51AC395195017AB58
:10020D0016AA17A918851A82758300120003FF120A
:09021D000153051A80E202026699
:100089001202267FAE12024F7FD512024F7F8012D5
:10009900024F7FA812024F7F0F12024F7FD3120225
:1000A9004FE4FF12024F7F4012024F7FA112024F0D
:1000B9007FC812024F7FDA12024F7F0212024F7F6E
:1000C9008112024F7FCF12024F7FD912024F7FF167
:1000D90012024F7FDB12024F7F3012024F7FA412B0
:1000E900024F7FA612024F7F8D12024F7F14120218
:0600F9004F7FAF02024F31
:10000300BB010CE58229F582E5833AF583E02250B2
:1000130006E92582F8E622BBFE06E92582F8E222FC
:0D002300E58229F582E5833AF583E4932216
:10003000EF8DF0A4A8F0CF8CF0A428CE8DF0A42EE4
:02004000FE229E
:10004200EB9FF5F0EA9E42F0E99D42F0EC6480C835
:0600520064809845F022D5
:10005800EB9FF5F0EA9E42F0E99D42F0E89C45F0FE
:010068002275
:100069007401FF3395E0FEFDFC080808E6CF2FF682
:1000790018E6CE3EF618E6CD3DF618E6CC3CF6225B
:00000001FF
