:0300000002018F6B
:0C018F00787FE4F6D8FD7581200201D6CF
:10021B00556E646566696E6520554900506F77654C
:10022B0072203A204F6E00506F776572203A204F44
:10023B006666004D6F6465203A20486F74004D6F01
:10024B006465203A20436F6C640054656D7074755F
:10025B007265203A205858005370656564203A2027
:10026B0058004C69676874203A204F6E00537769C9
:10027B006E67203A20562D5357494E4700536C65F5
:10028B006570203A204F666600417578486F742080
:06029B003A204F666600E8
:0E050900C100011100010E00010FC001100021
:10035E008E088F09E4F50DF50CF50BF50AAE08AF16
:10036E00097C007D0A120495EE3395E0FDFCAB0D81
:10037E00AA0CA90BA80AC31204A7501BE4FAF9F899
:10038E00E50D2401F50DEA350CF50CE9350BF50BF1
:08039E00E8350AF50A80C622C9
:10001E00E4F512F51312030E1200001202A11200E3
:10002E0000120000A2A1E43325E0FFA297E4334FB3
:10003E00FFA287E43325E025E04FFFA286E43333A9
:10004E00333354F84FFFA285E433FEC454F04FF51A
:10005E00121202A1E513651260CA851213E4F5119E
:10006E00E51254026402700DD3E50E940074809470
:10007E00804002150EE51254046404700AE50F5414
:10008E000164017002050EE51254016401706CAF3B
:10009E000EFEEF7012E50F5401F5116311FF530FB1
:1000AE00FEE5115401420FEF64014E7012E50F543C
:1000BE0002F5116311FF530FFDE5115402420FE5D6
:1000CE000E64027021E50F547C1313543FFFD3943A
:1000DE001074809480400F8F111511530F83E5110A
:1000EE0025E025E0420FE50E6403700FE510540382
:1000FE00F51115115310FCE5114210E51254106460
:10010E0010706CAF0EFEEF7012E50F5401F5116317
:10011E0011FF530FFEE5115401420FEF64014E70B3
:10012E0012E50F5402F5116311FF530FFDE5115443
:10013E0002420FE50E64027021E50F547C13135436
:10014E003FFFC3941F74809480500F8F110511537D
:10015E000F83E51125E025E0420FE50E6403700FD5
:10016E00E5105403F51105115310FCE5114210E58D
:10017E0012540864087005D2011203A64310400100
:01018E00323E
:10030E00E4F586439680758CFF758AEE5389F0432B
:10031E0089015388CF438810F58DF58B53890F4390
:10032E00891053883F43884075A88A75B80A908013
:10033E00097402F090800F14F0908011F0908007F5
:10034E00F0908006F0908005F0C28CC28EC2912291
:1002A100E50EB40800503E9002AE25E07341BE4118
:1002B100C341C841CD41D241D741DC41E11204459E
:1002C100803612046D80311203E1802C12041580F6
:1002D100271204BD80221204D0801D1204E380186D
:1002E1001204F680137BFF7A02791B7500017D04ED
:1002F1007C00E4FFFE120000E51054406440700CE5
:0D0301005310BF1200001200001200002275
:10044500E50F540164017BFF700C7A027927750072
:10045500017D04FC800C7A0279327500017D047CF3
:0804650000E4FFFE120000227A
:10046D00E50F540264027BFF700C7A02793E750031
:10047D00017D04FC800C7A0279497500017D047CB4
:08048D0000E4FFFE1200002252
:1003E1007BFF7A0279557500017D047C00E4FFFEF4
:1003F100120000E50F547C1313543FFFE48F00F506
:1004010000F500F5007500027500017D04FC7F42D6
:04041100FE020000E7
:100415007BFF7A0279637500017D047C00E4FFFEB1
:10042500120000E5105403FFE48F00F500F500F518
:10043500007500017500017D04FC7F30FE0200009F
:1004BD007BFF7A02796D7500017D047C00E4FFFEFF
:0304CD000200002A
:1004D0007BFF7A0279787500017D047C00E4FFFEE1
:0304E00002000017
:1004E3007BFF7A0279887500017D047C00E4FFFEBE
:0304F30002000004
:1004F6007BFF7A0279947500017D047C00E4FFFE9F
:03050600020000F0
:01000A0022D3
:1003A600758DFD758B15D28CD28ED2913000FDC223
:1003B60000C28CC29130010F758DF7758B40D28EBD
:1003C6003000FDC200800D758DFD758B15D28E3007
:0B03D60000FDC200C28EC28CD291223A
:03000B0002000EE2
:0D000E00C28D758CFF758AF0D28CB29132D4
:03001B00020003DD
:07000300C28FC28ED2003251
:10019B0002001EE493A3F8E493A34003F68001F25C
:1001AB0008DFF48029E493A3F85407240CC8C33365
:1001BB00C4540F4420C8834004F456800146F6DF34
:1001CB00E4800B0102040810204080900509E47EB6
:1001DB00019360BCA3FF543F30E509541FFEE49329
:1001EB00A360010ECF54C025E060A840B8E493A3F0
:1001FB00FAE493A3F8E493A3C8C582C8CAC583CA1B
:10020B00F0A3C8C582C8CAC583CADFE9DEE780BED2
:0105170000E3
:10049500EF8DF0A4A8F0CF8CF0A428CE8DF0A42E7B
:0204A500FE2235
:1004A700EB9FF5F0EA9E42F0E99D42F0EC6480C8CC
:0604B70064809845F0226C
:00000001FF
